{"abi":[{"type":"constructor","inputs":[{"name":"initialOwner","type":"address","internalType":"address"}],"stateMutability":"nonpayable"},{"type":"function","name":"approve","inputs":[{"name":"to","type":"address","internalType":"address"},{"name":"tokenId","type":"uint256","internalType":"uint256"}],"outputs":[],"stateMutability":"nonpayable"},{"type":"function","name":"audioFiles","inputs":[{"name":"","type":"uint256","internalType":"uint256"}],"outputs":[{"name":"name","type":"string","internalType":"string"},{"name":"ipfsHash","type":"string","internalType":"string"},{"name":"price","type":"uint256","internalType":"uint256"}],"stateMutability":"view"},{"type":"function","name":"balanceOf","inputs":[{"name":"owner","type":"address","internalType":"address"}],"outputs":[{"name":"","type":"uint256","internalType":"uint256"}],"stateMutability":"view"},{"type":"function","name":"createAudioToken","inputs":[{"name":"_name","type":"string","internalType":"string"},{"name":"_ipfsHash","type":"string","internalType":"string"},{"name":"_price","type":"uint256","internalType":"uint256"}],"outputs":[],"stateMutability":"nonpayable"},{"type":"function","name":"getApproved","inputs":[{"name":"tokenId","type":"uint256","internalType":"uint256"}],"outputs":[{"name":"","type":"address","internalType":"address"}],"stateMutability":"view"},{"type":"function","name":"getAudioFile","inputs":[{"name":"_tokenId","type":"uint256","internalType":"uint256"}],"outputs":[{"name":"","type":"string","internalType":"string"},{"name":"","type":"string","internalType":"string"},{"name":"","type":"uint256","internalType":"uint256"}],"stateMutability":"view"},{"type":"function","name":"isApprovedForAll","inputs":[{"name":"owner","type":"address","internalType":"address"},{"name":"operator","type":"address","internalType":"address"}],"outputs":[{"name":"","type":"bool","internalType":"bool"}],"stateMutability":"view"},{"type":"function","name":"name","inputs":[],"outputs":[{"name":"","type":"string","internalType":"string"}],"stateMutability":"view"},{"type":"function","name":"owner","inputs":[],"outputs":[{"name":"","type":"address","internalType":"address"}],"stateMutability":"view"},{"type":"function","name":"ownerOf","inputs":[{"name":"tokenId","type":"uint256","internalType":"uint256"}],"outputs":[{"name":"","type":"address","internalType":"address"}],"stateMutability":"view"},{"type":"function","name":"purchaseToken","inputs":[{"name":"_tokenId","type":"uint256","internalType":"uint256"}],"outputs":[],"stateMutability":"payable"},{"type":"function","name":"renounceOwnership","inputs":[],"outputs":[],"stateMutability":"nonpayable"},{"type":"function","name":"safeTransferFrom","inputs":[{"name":"from","type":"address","internalType":"address"},{"name":"to","type":"address","internalType":"address"},{"name":"tokenId","type":"uint256","internalType":"uint256"}],"outputs":[],"stateMutability":"nonpayable"},{"type":"function","name":"safeTransferFrom","inputs":[{"name":"from","type":"address","internalType":"address"},{"name":"to","type":"address","internalType":"address"},{"name":"tokenId","type":"uint256","internalType":"uint256"},{"name":"data","type":"bytes","internalType":"bytes"}],"outputs":[],"stateMutability":"nonpayable"},{"type":"function","name":"setApprovalForAll","inputs":[{"name":"operator","type":"address","internalType":"address"},{"name":"approved","type":"bool","internalType":"bool"}],"outputs":[],"stateMutability":"nonpayable"},{"type":"function","name":"supportsInterface","inputs":[{"name":"interfaceId","type":"bytes4","internalType":"bytes4"}],"outputs":[{"name":"","type":"bool","internalType":"bool"}],"stateMutability":"view"},{"type":"function","name":"symbol","inputs":[],"outputs":[{"name":"","type":"string","internalType":"string"}],"stateMutability":"view"},{"type":"function","name":"tokenCounter","inputs":[],"outputs":[{"name":"","type":"uint256","internalType":"uint256"}],"stateMutability":"view"},{"type":"function","name":"tokenURI","inputs":[{"name":"tokenId","type":"uint256","internalType":"uint256"}],"outputs":[{"name":"","type":"string","internalType":"string"}],"stateMutability":"view"},{"type":"function","name":"transferFrom","inputs":[{"name":"from","type":"address","internalType":"address"},{"name":"to","type":"address","internalType":"address"},{"name":"tokenId","type":"uint256","internalType":"uint256"}],"outputs":[],"stateMutability":"nonpayable"},{"type":"function","name":"transferOwnership","inputs":[{"name":"newOwner","type":"address","internalType":"address"}],"outputs":[],"stateMutability":"nonpayable"},{"type":"event","name":"Approval","inputs":[{"name":"owner","type":"address","indexed":true,"internalType":"address"},{"name":"approved","type":"address","indexed":true,"internalType":"address"},{"name":"tokenId","type":"uint256","indexed":true,"internalType":"uint256"}],"anonymous":false},{"type":"event","name":"ApprovalForAll","inputs":[{"name":"owner","type":"address","indexed":true,"internalType":"address"},{"name":"operator","type":"address","indexed":true,"internalType":"address"},{"name":"approved","type":"bool","indexed":false,"internalType":"bool"}],"anonymous":false},{"type":"event","name":"OwnershipTransferred","inputs":[{"name":"previousOwner","type":"address","indexed":true,"internalType":"address"},{"name":"newOwner","type":"address","indexed":true,"internalType":"address"}],"anonymous":false},{"type":"event","name":"Transfer","inputs":[{"name":"from","type":"address","indexed":true,"internalType":"address"},{"name":"to","type":"address","indexed":true,"internalType":"address"},{"name":"tokenId","type":"uint256","indexed":true,"internalType":"uint256"}],"anonymous":false},{"type":"error","name":"ERC721IncorrectOwner","inputs":[{"name":"sender","type":"address","internalType":"address"},{"name":"tokenId","type":"uint256","internalType":"uint256"},{"name":"owner","type":"address","internalType":"address"}]},{"type":"error","name":"ERC721InsufficientApproval","inputs":[{"name":"operator","type":"address","internalType":"address"},{"name":"tokenId","type":"uint256","internalType":"uint256"}]},{"type":"error","name":"ERC721InvalidApprover","inputs":[{"name":"approver","type":"address","internalType":"address"}]},{"type":"error","name":"ERC721InvalidOperator","inputs":[{"name":"operator","type":"address","internalType":"address"}]},{"type":"error","name":"ERC721InvalidOwner","inputs":[{"name":"owner","type":"address","internalType":"address"}]},{"type":"error","name":"ERC721InvalidReceiver","inputs":[{"name":"receiver","type":"address","internalType":"address"}]},{"type":"error","name":"ERC721InvalidSender","inputs":[{"name":"sender","type":"address","internalType":"address"}]},{"type":"error","name":"ERC721NonexistentToken","inputs":[{"name":"tokenId","type":"uint256","internalType":"uint256"}]},{"type":"error","name":"OwnableInvalidOwner","inputs":[{"name":"owner","type":"address","internalType":"address"}]},{"type":"error","name":"OwnableUnauthorizedAccount","inputs":[{"name":"account","type":"address","internalType":"address"}]}],"bytecode":{"object":"0x608060405234801561001057600080fd5b50604051611c7e380380611c7e83398101604081905261002f91610123565b806040518060400160405280600a81526020016920bab234b7aa37b5b2b760b11b8152506040518060400160405280600381526020016241544b60e81b815250816000908161007e91906101f2565b50600161008b82826101f2565b5050506001600160a01b0381166100bc57604051631e4fbdf760e01b81526000600482015260240160405180910390fd5b6100c5816100d1565b505060006007556102b0565b600680546001600160a01b038381166001600160a01b0319831681179093556040519116919082907f8be0079c531659141344cd1fd0a4f28419497f9722a3daafe3b4186f6b6457e090600090a35050565b60006020828403121561013557600080fd5b81516001600160a01b038116811461014c57600080fd5b9392505050565b634e487b7160e01b600052604160045260246000fd5b600181811c9082168061017d57607f821691505b60208210810361019d57634e487b7160e01b600052602260045260246000fd5b50919050565b601f8211156101ed57806000526020600020601f840160051c810160208510156101ca5750805b601f840160051c820191505b818110156101ea57600081556001016101d6565b50505b505050565b81516001600160401b0381111561020b5761020b610153565b61021f816102198454610169565b846101a3565b6020601f821160018114610253576000831561023b5750848201515b600019600385901b1c1916600184901b1784556101ea565b600084815260208120601f198516915b828110156102835787850151825560209485019460019092019101610263565b50848210156102a15786840151600019600387901b60f8161c191681555b50505050600190811b01905550565b6119bf806102bf6000396000f3fe60806040526004361061012a5760003560e01c8063715018a6116100ab578063c2db2c421161006f578063c2db2c4214610345578063c87b56dd14610358578063d082e38114610378578063e55931401461038e578063e985e9c5146103ae578063f2fde38b146103ce57600080fd5b8063715018a6146102bd5780638da5cb5b146102d257806395d89b41146102f0578063a22cb46514610305578063b88d4fde1461032557600080fd5b806323b872dd116100f257806323b872dd1461020f57806342842e0e1461022f57806362a759d81461024f5780636352211e1461026f57806370a082311461028f57600080fd5b806301ffc9a71461012f57806306fdde0314610164578063081812fc14610186578063095ea7b3146101be57806311bfc324146101e0575b600080fd5b34801561013b57600080fd5b5061014f61014a366004611424565b6103ee565b60405190151581526020015b60405180910390f35b34801561017057600080fd5b50610179610440565b60405161015b9190611491565b34801561019257600080fd5b506101a66101a13660046114a4565b6104d2565b6040516001600160a01b03909116815260200161015b565b3480156101ca57600080fd5b506101de6101d93660046114d9565b6104fb565b005b3480156101ec57600080fd5b506102006101fb3660046114a4565b61050a565b60405161015b93929190611503565b34801561021b57600080fd5b506101de61022a366004611539565b610677565b34801561023b57600080fd5b506101de61024a366004611539565b610707565b34801561025b57600080fd5b506101de61026a366004611626565b610727565b34801561027b57600080fd5b506101a661028a3660046114a4565b6107ac565b34801561029b57600080fd5b506102af6102aa366004611699565b6107b7565b60405190815260200161015b565b3480156102c957600080fd5b506101de6107ff565b3480156102de57600080fd5b506006546001600160a01b03166101a6565b3480156102fc57600080fd5b50610179610813565b34801561031157600080fd5b506101de6103203660046116b4565b610822565b34801561033157600080fd5b506101de6103403660046116f0565b61082d565b6101de6103533660046114a4565b610844565b34801561036457600080fd5b506101796103733660046114a4565b610a25565b34801561038457600080fd5b506102af60075481565b34801561039a57600080fd5b506102006103a93660046114a4565b610a9a565b3480156103ba57600080fd5b5061014f6103c936600461176c565b610bcc565b3480156103da57600080fd5b506101de6103e9366004611699565b610bfa565b60006001600160e01b031982166380ac58cd60e01b148061041f57506001600160e01b03198216635b5e139f60e01b145b8061043a57506301ffc9a760e01b6001600160e01b03198316145b92915050565b60606000805461044f9061179f565b80601f016020809104026020016040519081016040528092919081815260200182805461047b9061179f565b80156104c85780601f1061049d576101008083540402835291602001916104c8565b820191906000526020600020905b8154815290600101906020018083116104ab57829003601f168201915b5050505050905090565b60006104dd82610c38565b506000828152600460205260409020546001600160a01b031661043a565b610506828233610c71565b5050565b6060806000806008600086815260200190815260200160002060405180606001604052908160008201805461053e9061179f565b80601f016020809104026020016040519081016040528092919081815260200182805461056a9061179f565b80156105b75780601f1061058c576101008083540402835291602001916105b7565b820191906000526020600020905b81548152906001019060200180831161059a57829003601f168201915b505050505081526020016001820180546105d09061179f565b80601f01602080910402602001604051908101604052809291908181526020018280546105fc9061179f565b80156106495780601f1061061e57610100808354040283529160200191610649565b820191906000526020600020905b81548152906001019060200180831161062c57829003601f168201915b5050509183525050600291909101546020918201528151908201516040909201519097919650945092505050565b6001600160a01b0382166106a657604051633250574960e11b8152600060048201526024015b60405180910390fd5b60006106b3838333610c7e565b9050836001600160a01b0316816001600160a01b031614610701576040516364283d7b60e01b81526001600160a01b038086166004830152602482018490528216604482015260640161069d565b50505050565b6107228383836040518060200160405280600081525061082d565b505050565b6007546107343382610d77565b60408051606081018252858152602080820186905281830185905260008481526008909152919091208151819061076b9082611820565b50602082015160018201906107809082611820565b50604082015181600201559050506001600760008282546107a191906118df565b909155505050505050565b600061043a82610c38565b60006001600160a01b0382166107e3576040516322718ad960e21b81526000600482015260240161069d565b506001600160a01b031660009081526003602052604090205490565b610807610ddc565b6108116000610e09565b565b60606001805461044f9061179f565b610506338383610e5b565b610838848484610677565b61070184848484610efa565b60008181526008602052604080822081516060810190925280548290829061086b9061179f565b80601f01602080910402602001604051908101604052809291908181526020018280546108979061179f565b80156108e45780601f106108b9576101008083540402835291602001916108e4565b820191906000526020600020905b8154815290600101906020018083116108c757829003601f168201915b505050505081526020016001820180546108fd9061179f565b80601f01602080910402602001604051908101604052809291908181526020018280546109299061179f565b80156109765780601f1061094b57610100808354040283529160200191610976565b820191906000526020600020905b81548152906001019060200180831161095957829003601f168201915b50505050508152602001600282015481525050905080604001513410156109d65760405162461bcd60e51b8152602060048201526014602482015273125b9cdd59999a58da595b9d081c185e5b595b9d60621b604482015260640161069d565b60006109e1836107ac565b6040519091506001600160a01b038216903480156108fc02916000818181858888f19350505050158015610a19573d6000803e3d6000fd5b50610722813385611023565b6060610a3082610c38565b506000610a4860408051602081019091526000815290565b90506000815111610a685760405180602001604052806000815250610a93565b80610a72846110d3565b604051602001610a83929190611900565b6040516020818303038152906040525b9392505050565b600860205260009081526040902080548190610ab59061179f565b80601f0160208091040260200160405190810160405280929190818152602001828054610ae19061179f565b8015610b2e5780601f10610b0357610100808354040283529160200191610b2e565b820191906000526020600020905b815481529060010190602001808311610b1157829003601f168201915b505050505090806001018054610b439061179f565b80601f0160208091040260200160405190810160405280929190818152602001828054610b6f9061179f565b8015610bbc5780601f10610b9157610100808354040283529160200191610bbc565b820191906000526020600020905b815481529060010190602001808311610b9f57829003601f168201915b5050505050908060020154905083565b6001600160a01b03918216600090815260056020908152604080832093909416825291909152205460ff1690565b610c02610ddc565b6001600160a01b038116610c2c57604051631e4fbdf760e01b81526000600482015260240161069d565b610c3581610e09565b50565b6000818152600260205260408120546001600160a01b03168061043a57604051637e27328960e01b81526004810184905260240161069d565b6107228383836001611166565b6000828152600260205260408120546001600160a01b0390811690831615610cab57610cab81848661126c565b6001600160a01b03811615610ce957610cc8600085600080611166565b6001600160a01b038116600090815260036020526040902080546000190190555b6001600160a01b03851615610d18576001600160a01b0385166000908152600360205260409020805460010190555b60008481526002602052604080822080546001600160a01b0319166001600160a01b0389811691821790925591518793918516917fddf252ad1be2c89b69c2b068fc378daa952ba7f163c4a11628f55a4df523b3ef91a4949350505050565b6001600160a01b038216610da157604051633250574960e11b81526000600482015260240161069d565b6000610daf83836000610c7e565b90506001600160a01b03811615610722576040516339e3563760e11b81526000600482015260240161069d565b6006546001600160a01b031633146108115760405163118cdaa760e01b815233600482015260240161069d565b600680546001600160a01b038381166001600160a01b0319831681179093556040519116919082907f8be0079c531659141344cd1fd0a4f28419497f9722a3daafe3b4186f6b6457e090600090a35050565b6001600160a01b038216610e8d57604051630b61174360e31b81526001600160a01b038316600482015260240161069d565b6001600160a01b03838116600081815260056020908152604080832094871680845294825291829020805460ff191686151590811790915591519182527f17307eab39ab6107e8899845ad3d59bd9653f200f220920489ca2b5937696c31910160405180910390a3505050565b6001600160a01b0383163b1561070157604051630a85bd0160e11b81526001600160a01b0384169063150b7a0290610f3c90339088908790879060040161192f565b6020604051808303816000875af1925050508015610f77575060408051601f3d908101601f19168201909252610f749181019061196c565b60015b610fe0573d808015610fa5576040519150601f19603f3d011682016040523d82523d6000602084013e610faa565b606091505b508051600003610fd857604051633250574960e11b81526001600160a01b038516600482015260240161069d565b805181602001fd5b6001600160e01b03198116630a85bd0160e11b1461101c57604051633250574960e11b81526001600160a01b038516600482015260240161069d565b5050505050565b6001600160a01b03821661104d57604051633250574960e11b81526000600482015260240161069d565b600061105b83836000610c7e565b90506001600160a01b03811661108757604051637e27328960e01b81526004810183905260240161069d565b836001600160a01b0316816001600160a01b031614610701576040516364283d7b60e01b81526001600160a01b038086166004830152602482018490528216604482015260640161069d565b606060006110e0836112d0565b600101905060008167ffffffffffffffff81111561110057611100611576565b6040519080825280601f01601f19166020018201604052801561112a576020820181803683370190505b5090508181016020015b600019016f181899199a1a9b1b9c1cb0b131b232b360811b600a86061a8153600a850494508461113457509392505050565b808061117a57506001600160a01b03821615155b1561123c57600061118a84610c38565b90506001600160a01b038316158015906111b65750826001600160a01b0316816001600160a01b031614155b80156111c957506111c78184610bcc565b155b156111f25760405163a9fbf51f60e01b81526001600160a01b038416600482015260240161069d565b811561123a5783856001600160a01b0316826001600160a01b03167f8c5be1e5ebec7d5bd14f71427d1e84f3dd0314c0f7b2291e5b200ac8c7c3b92560405160405180910390a45b505b5050600090815260046020526040902080546001600160a01b0319166001600160a01b0392909216919091179055565b6112778383836113a8565b610722576001600160a01b0383166112a557604051637e27328960e01b81526004810182905260240161069d565b60405163177e802f60e01b81526001600160a01b03831660048201526024810182905260440161069d565b60008072184f03e93ff9f4daa797ed6e38ed64bf6a1f0160401b831061130f5772184f03e93ff9f4daa797ed6e38ed64bf6a1f0160401b830492506040015b6d04ee2d6d415b85acef8100000000831061133b576d04ee2d6d415b85acef8100000000830492506020015b662386f26fc10000831061135957662386f26fc10000830492506010015b6305f5e1008310611371576305f5e100830492506008015b612710831061138557612710830492506004015b60648310611397576064830492506002015b600a831061043a5760010192915050565b60006001600160a01b038316158015906114065750826001600160a01b0316846001600160a01b031614806113e257506113e28484610bcc565b8061140657506000828152600460205260409020546001600160a01b038481169116145b949350505050565b6001600160e01b031981168114610c3557600080fd5b60006020828403121561143657600080fd5b8135610a938161140e565b60005b8381101561145c578181015183820152602001611444565b50506000910152565b6000815180845261147d816020860160208601611441565b601f01601f19169290920160200192915050565b602081526000610a936020830184611465565b6000602082840312156114b657600080fd5b5035919050565b80356001600160a01b03811681146114d457600080fd5b919050565b600080604083850312156114ec57600080fd5b6114f5836114bd565b946020939093013593505050565b6060815260006115166060830186611465565b82810360208401526115288186611465565b915050826040830152949350505050565b60008060006060848603121561154e57600080fd5b611557846114bd565b9250611565602085016114bd565b929592945050506040919091013590565b634e487b7160e01b600052604160045260246000fd5b60008067ffffffffffffffff8411156115a7576115a7611576565b50604051601f19601f85018116603f0116810181811067ffffffffffffffff821117156115d6576115d6611576565b6040528381529050808284018510156115ee57600080fd5b83836020830137600060208583010152509392505050565b600082601f83011261161757600080fd5b610a938383356020850161158c565b60008060006060848603121561163b57600080fd5b833567ffffffffffffffff81111561165257600080fd5b61165e86828701611606565b935050602084013567ffffffffffffffff81111561167b57600080fd5b61168786828701611606565b93969395505050506040919091013590565b6000602082840312156116ab57600080fd5b610a93826114bd565b600080604083850312156116c757600080fd5b6116d0836114bd565b9150602083013580151581146116e557600080fd5b809150509250929050565b6000806000806080858703121561170657600080fd5b61170f856114bd565b935061171d602086016114bd565b925060408501359150606085013567ffffffffffffffff81111561174057600080fd5b8501601f8101871361175157600080fd5b6117608782356020840161158c565b91505092959194509250565b6000806040838503121561177f57600080fd5b611788836114bd565b9150611796602084016114bd565b90509250929050565b600181811c908216806117b357607f821691505b6020821081036117d357634e487b7160e01b600052602260045260246000fd5b50919050565b601f82111561072257806000526020600020601f840160051c810160208510156118005750805b601f840160051c820191505b8181101561101c576000815560010161180c565b815167ffffffffffffffff81111561183a5761183a611576565b61184e81611848845461179f565b846117d9565b6020601f821160018114611882576000831561186a5750848201515b600019600385901b1c1916600184901b17845561101c565b600084815260208120601f198516915b828110156118b25787850151825560209485019460019092019101611892565b50848210156118d05786840151600019600387901b60f8161c191681555b50505050600190811b01905550565b8082018082111561043a57634e487b7160e01b600052601160045260246000fd5b60008351611912818460208801611441565b835190830190611926818360208801611441565b01949350505050565b6001600160a01b038581168252841660208201526040810183905260806060820181905260009061196290830184611465565b9695505050505050565b60006020828403121561197e57600080fd5b8151610a938161140e56fea2646970667358221220af091795d4e785b22bb8b566d586b1fcc8bcbb5daa755ebbf302e0e32bda25ed64736f6c634300081a0033","linkReferences":{}},"methodIdentifiers":{"approve(address,uint256)":"095ea7b3","audioFiles(uint256)":"e5593140","balanceOf(address)":"70a08231","createAudioToken(string,string,uint256)":"62a759d8","getApproved(uint256)":"081812fc","getAudioFile(uint256)":"11bfc324","isApprovedForAll(address,address)":"e985e9c5","name()":"06fdde03","owner()":"8da5cb5b","ownerOf(uint256)":"6352211e","purchaseToken(uint256)":"c2db2c42","renounceOwnership()":"715018a6","safeTransferFrom(address,address,uint256)":"42842e0e","safeTransferFrom(address,address,uint256,bytes)":"b88d4fde","setApprovalForAll(address,bool)":"a22cb465","supportsInterface(bytes4)":"01ffc9a7","symbol()":"95d89b41","tokenCounter()":"d082e381","tokenURI(uint256)":"c87b56dd","transferFrom(address,address,uint256)":"23b872dd","transferOwnership(address)":"f2fde38b"},"id":37}